{
  "contractName": "NFT",
  "abi": [
    {
      "inputs": [
        {
          "internalType": "string",
          "name": "_nftName",
          "type": "string"
        },
        {
          "internalType": "string",
          "name": "_nftSymbol",
          "type": "string"
        }
      ],
      "stateMutability": "nonpayable",
      "type": "constructor"
    },
    {
      "anonymous": false,
      "inputs": [
        {
          "indexed": true,
          "internalType": "address",
          "name": "_owner",
          "type": "address"
        },
        {
          "indexed": true,
          "internalType": "address",
          "name": "_approved",
          "type": "address"
        },
        {
          "indexed": true,
          "internalType": "uint256",
          "name": "_tokenId",
          "type": "uint256"
        }
      ],
      "name": "Approval",
      "type": "event"
    },
    {
      "anonymous": false,
      "inputs": [
        {
          "indexed": true,
          "internalType": "address",
          "name": "_owner",
          "type": "address"
        },
        {
          "indexed": true,
          "internalType": "address",
          "name": "_operator",
          "type": "address"
        },
        {
          "indexed": false,
          "internalType": "bool",
          "name": "_approved",
          "type": "bool"
        }
      ],
      "name": "ApprovalForAll",
      "type": "event"
    },
    {
      "anonymous": false,
      "inputs": [
        {
          "indexed": true,
          "internalType": "address",
          "name": "previousOwner",
          "type": "address"
        },
        {
          "indexed": true,
          "internalType": "address",
          "name": "newOwner",
          "type": "address"
        }
      ],
      "name": "OwnershipTransferred",
      "type": "event"
    },
    {
      "anonymous": false,
      "inputs": [
        {
          "indexed": true,
          "internalType": "address",
          "name": "_from",
          "type": "address"
        },
        {
          "indexed": true,
          "internalType": "address",
          "name": "_to",
          "type": "address"
        },
        {
          "indexed": true,
          "internalType": "uint256",
          "name": "_tokenId",
          "type": "uint256"
        }
      ],
      "name": "Transfer",
      "type": "event"
    },
    {
      "inputs": [],
      "name": "CANNOT_TRANSFER_TO_ZERO_ADDRESS",
      "outputs": [
        {
          "internalType": "string",
          "name": "",
          "type": "string"
        }
      ],
      "stateMutability": "view",
      "type": "function"
    },
    {
      "inputs": [],
      "name": "NOT_CURRENT_OWNER",
      "outputs": [
        {
          "internalType": "string",
          "name": "",
          "type": "string"
        }
      ],
      "stateMutability": "view",
      "type": "function"
    },
    {
      "inputs": [
        {
          "internalType": "address",
          "name": "_approved",
          "type": "address"
        },
        {
          "internalType": "uint256",
          "name": "_tokenId",
          "type": "uint256"
        }
      ],
      "name": "approve",
      "outputs": [],
      "stateMutability": "nonpayable",
      "type": "function"
    },
    {
      "inputs": [
        {
          "internalType": "address",
          "name": "_owner",
          "type": "address"
        }
      ],
      "name": "balanceOf",
      "outputs": [
        {
          "internalType": "uint256",
          "name": "",
          "type": "uint256"
        }
      ],
      "stateMutability": "view",
      "type": "function"
    },
    {
      "inputs": [
        {
          "internalType": "uint256",
          "name": "_tokenId",
          "type": "uint256"
        }
      ],
      "name": "getApproved",
      "outputs": [
        {
          "internalType": "address",
          "name": "",
          "type": "address"
        }
      ],
      "stateMutability": "view",
      "type": "function"
    },
    {
      "inputs": [
        {
          "internalType": "address",
          "name": "_owner",
          "type": "address"
        },
        {
          "internalType": "address",
          "name": "_operator",
          "type": "address"
        }
      ],
      "name": "isApprovedForAll",
      "outputs": [
        {
          "internalType": "bool",
          "name": "",
          "type": "bool"
        }
      ],
      "stateMutability": "view",
      "type": "function"
    },
    {
      "inputs": [],
      "name": "name",
      "outputs": [
        {
          "internalType": "string",
          "name": "_name",
          "type": "string"
        }
      ],
      "stateMutability": "view",
      "type": "function"
    },
    {
      "inputs": [],
      "name": "owner",
      "outputs": [
        {
          "internalType": "address",
          "name": "",
          "type": "address"
        }
      ],
      "stateMutability": "view",
      "type": "function"
    },
    {
      "inputs": [
        {
          "internalType": "uint256",
          "name": "_tokenId",
          "type": "uint256"
        }
      ],
      "name": "ownerOf",
      "outputs": [
        {
          "internalType": "address",
          "name": "_owner",
          "type": "address"
        }
      ],
      "stateMutability": "view",
      "type": "function"
    },
    {
      "inputs": [
        {
          "internalType": "address",
          "name": "_from",
          "type": "address"
        },
        {
          "internalType": "address",
          "name": "_to",
          "type": "address"
        },
        {
          "internalType": "uint256",
          "name": "_tokenId",
          "type": "uint256"
        }
      ],
      "name": "safeTransferFrom",
      "outputs": [],
      "stateMutability": "nonpayable",
      "type": "function"
    },
    {
      "inputs": [
        {
          "internalType": "address",
          "name": "_from",
          "type": "address"
        },
        {
          "internalType": "address",
          "name": "_to",
          "type": "address"
        },
        {
          "internalType": "uint256",
          "name": "_tokenId",
          "type": "uint256"
        },
        {
          "internalType": "bytes",
          "name": "_data",
          "type": "bytes"
        }
      ],
      "name": "safeTransferFrom",
      "outputs": [],
      "stateMutability": "nonpayable",
      "type": "function"
    },
    {
      "inputs": [
        {
          "internalType": "address",
          "name": "_operator",
          "type": "address"
        },
        {
          "internalType": "bool",
          "name": "_approved",
          "type": "bool"
        }
      ],
      "name": "setApprovalForAll",
      "outputs": [],
      "stateMutability": "nonpayable",
      "type": "function"
    },
    {
      "inputs": [
        {
          "internalType": "bytes4",
          "name": "_interfaceID",
          "type": "bytes4"
        }
      ],
      "name": "supportsInterface",
      "outputs": [
        {
          "internalType": "bool",
          "name": "",
          "type": "bool"
        }
      ],
      "stateMutability": "view",
      "type": "function"
    },
    {
      "inputs": [],
      "name": "symbol",
      "outputs": [
        {
          "internalType": "string",
          "name": "_symbol",
          "type": "string"
        }
      ],
      "stateMutability": "view",
      "type": "function"
    },
    {
      "inputs": [
        {
          "internalType": "uint256",
          "name": "_tokenId",
          "type": "uint256"
        }
      ],
      "name": "tokenURI",
      "outputs": [
        {
          "internalType": "string",
          "name": "",
          "type": "string"
        }
      ],
      "stateMutability": "view",
      "type": "function"
    },
    {
      "inputs": [
        {
          "internalType": "address",
          "name": "_from",
          "type": "address"
        },
        {
          "internalType": "address",
          "name": "_to",
          "type": "address"
        },
        {
          "internalType": "uint256",
          "name": "_tokenId",
          "type": "uint256"
        }
      ],
      "name": "transferFrom",
      "outputs": [],
      "stateMutability": "nonpayable",
      "type": "function"
    },
    {
      "inputs": [
        {
          "internalType": "address",
          "name": "_newOwner",
          "type": "address"
        }
      ],
      "name": "transferOwnership",
      "outputs": [],
      "stateMutability": "nonpayable",
      "type": "function"
    },
    {
      "inputs": [
        {
          "internalType": "address",
          "name": "_to",
          "type": "address"
        },
        {
          "internalType": "string",
          "name": "_uri",
          "type": "string"
        }
      ],
      "name": "mint",
      "outputs": [],
      "stateMutability": "nonpayable",
      "type": "function"
    }
  ],
  "bytecode": "0x60806040523480156200001157600080fd5b50604051620019bf380380620019bf833981016040819052620000349162000265565b600060208181527f67be87c3ff9960ca1e9cfac5cab2ff4747269cf9ed20c9b7306235ac35a491c5805460ff1990811660019081179092557ff7815fccbf112960a73756e185887fedcb9fc64ca0a16cc5923b7960ed7808008054821683179055635b5e139f60e01b9093527f9562381dfbc2d8b8b66e765249f330164b73e329e5f01670660643571d1974df805490931617909155600880546001600160a01b031916331790558251620000f0916005919085019062000114565b5080516200010690600690602084019062000114565b50506000600955506200031f565b8280546200012290620002cc565b90600052602060002090601f01602090048101928262000146576000855562000191565b82601f106200016157805160ff191683800117855562000191565b8280016001018555821562000191579182015b828111156200019157825182559160200191906001019062000174565b506200019f929150620001a3565b5090565b5b808211156200019f5760008155600101620001a4565b600082601f830112620001cb578081fd5b81516001600160401b0380821115620001e857620001e862000309565b6040516020601f8401601f191682018101838111838210171562000210576200021062000309565b604052838252858401810187101562000227578485fd5b8492505b838310156200024a57858301810151828401820152918201916200022b565b838311156200025b57848185840101525b5095945050505050565b6000806040838503121562000278578182fd5b82516001600160401b03808211156200028f578384fd5b6200029d86838701620001ba565b93506020850151915080821115620002b3578283fd5b50620002c285828601620001ba565b9150509250929050565b600281046001821680620002e157607f821691505b602082108114156200030357634e487b7160e01b600052602260045260246000fd5b50919050565b634e487b7160e01b600052604160045260246000fd5b611690806200032f6000396000f3fe608060405234801561001057600080fd5b50600436106101165760003560e01c80638da5cb5b116100a2578063c87b56dd11610071578063c87b56dd14610225578063d0def52114610238578063e985e9c51461024b578063f2fde38b1461025e578063f3fe3bc31461027157610116565b80638da5cb5b146101ef57806395d89b41146101f7578063a22cb465146101ff578063b88d4fde1461021257610116565b806323b872dd116100e957806323b872dd1461018e57806342842e0e146101a15780636352211e146101b457806370a08231146101c7578063860d248a146101e757610116565b806301ffc9a71461011b57806306fdde0314610144578063081812fc14610159578063095ea7b314610179575b600080fd5b61012e6101293660046114b4565b610279565b60405161013b91906115a0565b60405180910390f35b61014c61029c565b60405161013b91906115ab565b61016c6101673660046114ec565b61032e565b60405161013b919061154f565b61018c61018736600461148b565b6103b0565b005b61018c61019c366004611358565b610552565b61018c6101af366004611358565b61070d565b61016c6101c23660046114ec565b61072d565b6101da6101d536600461130c565b610785565b60405161013b91906115be565b61014c6107dc565b61016c6107fe565b61014c61080d565b61018c61020d366004611400565b61081c565b61018c610220366004611393565b61088b565b61014c6102333660046114ec565b6108d4565b61018c61024636600461143a565b610940565b61012e610259366004611326565b6109ed565b61018c61026c36600461130c565b610a1b565b61014c610b06565b6001600160e01b0319811660009081526020819052604090205460ff165b919050565b6060600580546102ab906115f6565b80601f01602080910402602001604051908101604052809291908181526020018280546102d7906115f6565b80156103245780601f106102f957610100808354040283529160200191610324565b820191906000526020600020905b81548152906001019060200180831161030757829003601f168201915b5050505050905090565b6000818152600160209081526040808320548151808301909252600682526518181998181960d11b9282019290925283916001600160a01b031661038e5760405162461bcd60e51b815260040161038591906115ab565b60405180910390fd5b506000838152600260205260409020546001600160a01b031691505b50919050565b60008181526001602052604090205481906001600160a01b0316338114806103fb57506001600160a01b038116600090815260046020908152604080832033845290915290205460ff165b6040518060400160405280600681526020016530303330303360d01b815250906104385760405162461bcd60e51b815260040161038591906115ab565b50600083815260016020908152604091829020548251808401909352600683526518181998181960d11b918301919091528491906001600160a01b03166104925760405162461bcd60e51b815260040161038591906115ab565b50600084815260016020908152604091829020548251808401909352600683526506060666060760d31b918301919091526001600160a01b03908116919087168214156104f25760405162461bcd60e51b815260040161038591906115ab565b5060008581526002602052604080822080546001600160a01b0319166001600160a01b038a811691821790925591518893918516917f8c5be1e5ebec7d5bd14f71427d1e84f3dd0314c0f7b2291e5b200ac8c7c3b92591a4505050505050565b60008181526001602052604090205481906001600160a01b03163381148061059057506000828152600260205260409020546001600160a01b031633145b806105be57506001600160a01b038116600090815260046020908152604080832033845290915290205460ff165b604051806040016040528060068152602001650c0c0ccc0c0d60d21b815250906105fb5760405162461bcd60e51b815260040161038591906115ab565b50600083815260016020908152604091829020548251808401909352600683526518181998181960d11b918301919091528491906001600160a01b03166106555760405162461bcd60e51b815260040161038591906115ab565b50600084815260016020908152604091829020548251808401909352600683526530303330303760d01b918301919091526001600160a01b039081169190881682146106b45760405162461bcd60e51b815260040161038591906115ab565b5060408051808201909152600681526530303330303160d01b60208201526001600160a01b0387166106f95760405162461bcd60e51b815260040161038591906115ab565b506107048686610b28565b50505050505050565b61072883838360405180602001604052806000815250610ba3565b505050565b600081815260016020908152604091829020548251808401909352600683526518181998181960d11b918301919091526001600160a01b031690816103aa5760405162461bcd60e51b815260040161038591906115ab565b60408051808201909152600681526530303330303160d01b60208201526000906001600160a01b0383166107cc5760405162461bcd60e51b815260040161038591906115ab565b506107d682610e51565b92915050565b6040518060400160405280600681526020016518189c18181960d11b81525081565b6008546001600160a01b031681565b6060600680546102ab906115f6565b3360008181526004602090815260408083206001600160a01b038716808552925291829020805460ff191685151517905590519091907f17307eab39ab6107e8899845ad3d59bd9653f200f220920489ca2b5937696c319061087f9085906115a0565b60405180910390a35050565b6108cd85858585858080601f016020809104026020016040519081016040528093929190818152602001838380828437600092019190915250610ba392505050565b5050505050565b600081815260016020908152604091829020548251808401909352600683526518181998181960d11b9183019190915260609183916001600160a01b031661092f5760405162461bcd60e51b815260040161038591906115ab565b5061093983610e6c565b9392505050565b60085460408051808201909152600681526530313830303160d01b6020820152906001600160a01b031633146109895760405162461bcd60e51b815260040161038591906115ab565b506009546109989060016115c7565b60098190556109a78482610f0e565b6109e78184848080601f016020809104026020016040519081016040528093929190818152602001838380828437600092019190915250610ff192505050565b50505050565b6001600160a01b03918216600090815260046020908152604080832093909416825291909152205460ff1690565b60085460408051808201909152600681526530313830303160d01b6020820152906001600160a01b03163314610a645760405162461bcd60e51b815260040161038591906115ab565b5060408051808201909152600681526518189c18181960d11b60208201526001600160a01b038216610aa95760405162461bcd60e51b815260040161038591906115ab565b506008546040516001600160a01b038084169216907f8be0079c531659141344cd1fd0a4f28419497f9722a3daafe3b4186f6b6457e090600090a3600880546001600160a01b0319166001600160a01b0392909216919091179055565b6040518060400160405280600681526020016530313830303160d01b81525081565b6000818152600160205260409020546001600160a01b0316610b498261106a565b610b538183611088565b610b5d8383611131565b81836001600160a01b0316826001600160a01b03167fddf252ad1be2c89b69c2b068fc378daa952ba7f163c4a11628f55a4df523b3ef60405160405180910390a4505050565b60008281526001602052604090205482906001600160a01b031633811480610be157506000828152600260205260409020546001600160a01b031633145b80610c0f57506001600160a01b038116600090815260046020908152604080832033845290915290205460ff165b604051806040016040528060068152602001650c0c0ccc0c0d60d21b81525090610c4c5760405162461bcd60e51b815260040161038591906115ab565b50600084815260016020908152604091829020548251808401909352600683526518181998181960d11b918301919091528591906001600160a01b0316610ca65760405162461bcd60e51b815260040161038591906115ab565b50600085815260016020908152604091829020548251808401909352600683526530303330303760d01b918301919091526001600160a01b03908116919089168214610d055760405162461bcd60e51b815260040161038591906115ab565b5060408051808201909152600681526530303330303160d01b60208201526001600160a01b038816610d4a5760405162461bcd60e51b815260040161038591906115ab565b50610d558787610b28565b610d67876001600160a01b03166111d9565b15610e4757604051630a85bd0160e11b81526000906001600160a01b0389169063150b7a0290610da19033908d908c908c90600401611563565b602060405180830381600087803b158015610dbb57600080fd5b505af1158015610dcf573d6000803e3d6000fd5b505050506040513d601f19601f82011682018060405250810190610df391906114d0565b60408051808201909152600681526530303330303560d01b60208201529091506001600160e01b03198216630a85bd0160e11b14610e445760405162461bcd60e51b815260040161038591906115ab565b50505b5050505050505050565b6001600160a01b031660009081526003602052604090205490565b6000818152600760205260409020805460609190610e89906115f6565b80601f0160208091040260200160405190810160405280929190818152602001828054610eb5906115f6565b8015610f025780601f10610ed757610100808354040283529160200191610f02565b820191906000526020600020905b815481529060010190602001808311610ee557829003601f168201915b50505050509050919050565b60408051808201909152600681526530303330303160d01b60208201526001600160a01b038316610f525760405162461bcd60e51b815260040161038591906115ab565b50600081815260016020908152604091829020548251808401909352600683526518181998181b60d11b918301919091526001600160a01b031615610faa5760405162461bcd60e51b815260040161038591906115ab565b50610fb58282611131565b60405181906001600160a01b038416906000907fddf252ad1be2c89b69c2b068fc378daa952ba7f163c4a11628f55a4df523b3ef908290a45050565b600082815260016020908152604091829020548251808401909352600683526518181998181960d11b918301919091528391906001600160a01b031661104a5760405162461bcd60e51b815260040161038591906115ab565b50600083815260076020908152604090912083516109e792850190611215565b600090815260026020526040902080546001600160a01b0319169055565b600081815260016020908152604091829020548251808401909352600683526530303330303760d01b918301919091526001600160a01b038481169116146110e35760405162461bcd60e51b815260040161038591906115ab565b506001600160a01b038216600090815260036020526040812080546001929061110d9084906115df565b9091555050600090815260016020526040902080546001600160a01b031916905550565b600081815260016020908152604091829020548251808401909352600683526518181998181b60d11b918301919091526001600160a01b0316156111885760405162461bcd60e51b815260040161038591906115ab565b50600081815260016020818152604080842080546001600160a01b0319166001600160a01b0388169081179091558452600390915282208054919290916111d09084906115c7565b90915550505050565b6000813f7fc5d2460186f7233c927e7db2dcc703c0e500b653ca82273b7bfad8045d85a470811580159061120d5750808214155b949350505050565b828054611221906115f6565b90600052602060002090601f0160209004810192826112435760008555611289565b82601f1061125c57805160ff1916838001178555611289565b82800160010185558215611289579182015b8281111561128957825182559160200191906001019061126e565b50611295929150611299565b5090565b5b80821115611295576000815560010161129a565b80356001600160a01b038116811461029757600080fd5b60008083601f8401126112d6578182fd5b50813567ffffffffffffffff8111156112ed578182fd5b60208301915083602082850101111561130557600080fd5b9250929050565b60006020828403121561131d578081fd5b610939826112ae565b60008060408385031215611338578081fd5b611341836112ae565b915061134f602084016112ae565b90509250929050565b60008060006060848603121561136c578081fd5b611375846112ae565b9250611383602085016112ae565b9150604084013590509250925092565b6000806000806000608086880312156113aa578081fd5b6113b3866112ae565b94506113c1602087016112ae565b935060408601359250606086013567ffffffffffffffff8111156113e3578182fd5b6113ef888289016112c5565b969995985093965092949392505050565b60008060408385031215611412578182fd5b61141b836112ae565b91506020830135801515811461142f578182fd5b809150509250929050565b60008060006040848603121561144e578283fd5b611457846112ae565b9250602084013567ffffffffffffffff811115611472578283fd5b61147e868287016112c5565b9497909650939450505050565b6000806040838503121561149d578182fd5b6114a6836112ae565b946020939093013593505050565b6000602082840312156114c5578081fd5b813561093981611641565b6000602082840312156114e1578081fd5b815161093981611641565b6000602082840312156114fd578081fd5b5035919050565b60008151808452815b818110156115295760208185018101518683018201520161150d565b8181111561153a5782602083870101525b50601f01601f19169290920160200192915050565b6001600160a01b0391909116815260200190565b6001600160a01b038581168252841660208201526040810183905260806060820181905260009061159690830184611504565b9695505050505050565b901515815260200190565b6000602082526109396020830184611504565b90815260200190565b600082198211156115da576115da61162b565b500190565b6000828210156115f1576115f161162b565b500390565b60028104600182168061160a57607f821691505b602082108114156103aa57634e487b7160e01b600052602260045260246000fd5b634e487b7160e01b600052601160045260246000fd5b6001600160e01b03198116811461165757600080fd5b5056fea26469706673582212201267ca1c3f5f103c86a67bf01a8141b0bceff1f1f49cea28be83186e9d7a95ff64736f6c63430008000033",
  "immutableReferences": {},
  "source": "pragma solidity 0.8.0;\n \nimport \"./nf_token_metadata.sol\";\nimport \"./_ownable.sol\";\n \ncontract NFT is NFTokenMetadata, Ownable {\n\n  uint256 private currentTokenId;\n \n  constructor(string memory _nftName, string memory _nftSymbol) {\n    nftName = _nftName;\n    nftSymbol = _nftSymbol;\n    currentTokenId = 0;\n  }\n  \n  function mint(address _to, string calldata _uri) external onlyOwner {\n    currentTokenId = currentTokenId + 1;\n    uint256 newTokenId = currentTokenId;\n    super._mint(_to, newTokenId);\n    super._setTokenUri(newTokenId, _uri);\n  }\n\n\n \n}",
  "sourcePath": "/home/pdaguier/CryptoCactus/smartcontract/contract/NFT.sol",
  "compiler": {
    "name": "solc",
    "version": "0.8.0+commit.c7dfd78e.Emscripten.clang"
  },
  "schemaVersion": "3.4.13",
  "updatedAt": "2023-04-07T07:29:09.837Z",
  "devdoc": {
    "kind": "dev",
    "methods": {},
    "version": 1
  },
  "userdoc": {
    "kind": "user",
    "methods": {},
    "version": 1
  }
}