{
  "contractName": "NFT",
  "abi": [
    {
      "inputs": [
        {
          "internalType": "string",
          "name": "_nftName",
          "type": "string"
        },
        {
          "internalType": "string",
          "name": "_nftSymbol",
          "type": "string"
        }
      ],
      "stateMutability": "nonpayable",
      "type": "constructor"
    },
    {
      "anonymous": false,
      "inputs": [
        {
          "indexed": true,
          "internalType": "address",
          "name": "_owner",
          "type": "address"
        },
        {
          "indexed": true,
          "internalType": "address",
          "name": "_approved",
          "type": "address"
        },
        {
          "indexed": true,
          "internalType": "uint256",
          "name": "_tokenId",
          "type": "uint256"
        }
      ],
      "name": "Approval",
      "type": "event"
    },
    {
      "anonymous": false,
      "inputs": [
        {
          "indexed": true,
          "internalType": "address",
          "name": "_owner",
          "type": "address"
        },
        {
          "indexed": true,
          "internalType": "address",
          "name": "_operator",
          "type": "address"
        },
        {
          "indexed": false,
          "internalType": "bool",
          "name": "_approved",
          "type": "bool"
        }
      ],
      "name": "ApprovalForAll",
      "type": "event"
    },
    {
      "anonymous": false,
      "inputs": [
        {
          "indexed": true,
          "internalType": "address",
          "name": "previousOwner",
          "type": "address"
        },
        {
          "indexed": true,
          "internalType": "address",
          "name": "newOwner",
          "type": "address"
        }
      ],
      "name": "OwnershipTransferred",
      "type": "event"
    },
    {
      "anonymous": false,
      "inputs": [
        {
          "indexed": true,
          "internalType": "address",
          "name": "_from",
          "type": "address"
        },
        {
          "indexed": true,
          "internalType": "address",
          "name": "_to",
          "type": "address"
        },
        {
          "indexed": true,
          "internalType": "uint256",
          "name": "_tokenId",
          "type": "uint256"
        }
      ],
      "name": "Transfer",
      "type": "event"
    },
    {
      "inputs": [],
      "name": "CANNOT_TRANSFER_TO_ZERO_ADDRESS",
      "outputs": [
        {
          "internalType": "string",
          "name": "",
          "type": "string"
        }
      ],
      "stateMutability": "view",
      "type": "function"
    },
    {
      "inputs": [],
      "name": "NOT_CURRENT_OWNER",
      "outputs": [
        {
          "internalType": "string",
          "name": "",
          "type": "string"
        }
      ],
      "stateMutability": "view",
      "type": "function"
    },
    {
      "inputs": [
        {
          "internalType": "address",
          "name": "_approved",
          "type": "address"
        },
        {
          "internalType": "uint256",
          "name": "_tokenId",
          "type": "uint256"
        }
      ],
      "name": "approve",
      "outputs": [],
      "stateMutability": "nonpayable",
      "type": "function"
    },
    {
      "inputs": [
        {
          "internalType": "address",
          "name": "_owner",
          "type": "address"
        }
      ],
      "name": "balanceOf",
      "outputs": [
        {
          "internalType": "uint256",
          "name": "",
          "type": "uint256"
        }
      ],
      "stateMutability": "view",
      "type": "function"
    },
    {
      "inputs": [
        {
          "internalType": "uint256",
          "name": "_tokenId",
          "type": "uint256"
        }
      ],
      "name": "getApproved",
      "outputs": [
        {
          "internalType": "address",
          "name": "",
          "type": "address"
        }
      ],
      "stateMutability": "view",
      "type": "function"
    },
    {
      "inputs": [
        {
          "internalType": "address",
          "name": "_owner",
          "type": "address"
        },
        {
          "internalType": "address",
          "name": "_operator",
          "type": "address"
        }
      ],
      "name": "isApprovedForAll",
      "outputs": [
        {
          "internalType": "bool",
          "name": "",
          "type": "bool"
        }
      ],
      "stateMutability": "view",
      "type": "function"
    },
    {
      "inputs": [],
      "name": "name",
      "outputs": [
        {
          "internalType": "string",
          "name": "_name",
          "type": "string"
        }
      ],
      "stateMutability": "view",
      "type": "function"
    },
    {
      "inputs": [],
      "name": "owner",
      "outputs": [
        {
          "internalType": "address",
          "name": "",
          "type": "address"
        }
      ],
      "stateMutability": "view",
      "type": "function"
    },
    {
      "inputs": [
        {
          "internalType": "uint256",
          "name": "_tokenId",
          "type": "uint256"
        }
      ],
      "name": "ownerOf",
      "outputs": [
        {
          "internalType": "address",
          "name": "_owner",
          "type": "address"
        }
      ],
      "stateMutability": "view",
      "type": "function"
    },
    {
      "inputs": [
        {
          "internalType": "address",
          "name": "_from",
          "type": "address"
        },
        {
          "internalType": "address",
          "name": "_to",
          "type": "address"
        },
        {
          "internalType": "uint256",
          "name": "_tokenId",
          "type": "uint256"
        }
      ],
      "name": "safeTransferFrom",
      "outputs": [],
      "stateMutability": "nonpayable",
      "type": "function"
    },
    {
      "inputs": [
        {
          "internalType": "address",
          "name": "_from",
          "type": "address"
        },
        {
          "internalType": "address",
          "name": "_to",
          "type": "address"
        },
        {
          "internalType": "uint256",
          "name": "_tokenId",
          "type": "uint256"
        },
        {
          "internalType": "bytes",
          "name": "_data",
          "type": "bytes"
        }
      ],
      "name": "safeTransferFrom",
      "outputs": [],
      "stateMutability": "nonpayable",
      "type": "function"
    },
    {
      "inputs": [
        {
          "internalType": "address",
          "name": "_operator",
          "type": "address"
        },
        {
          "internalType": "bool",
          "name": "_approved",
          "type": "bool"
        }
      ],
      "name": "setApprovalForAll",
      "outputs": [],
      "stateMutability": "nonpayable",
      "type": "function"
    },
    {
      "inputs": [
        {
          "internalType": "bytes4",
          "name": "_interfaceID",
          "type": "bytes4"
        }
      ],
      "name": "supportsInterface",
      "outputs": [
        {
          "internalType": "bool",
          "name": "",
          "type": "bool"
        }
      ],
      "stateMutability": "view",
      "type": "function"
    },
    {
      "inputs": [],
      "name": "symbol",
      "outputs": [
        {
          "internalType": "string",
          "name": "_symbol",
          "type": "string"
        }
      ],
      "stateMutability": "view",
      "type": "function"
    },
    {
      "inputs": [
        {
          "internalType": "uint256",
          "name": "_tokenId",
          "type": "uint256"
        }
      ],
      "name": "tokenURI",
      "outputs": [
        {
          "internalType": "string",
          "name": "",
          "type": "string"
        }
      ],
      "stateMutability": "view",
      "type": "function"
    },
    {
      "inputs": [
        {
          "internalType": "address",
          "name": "_from",
          "type": "address"
        },
        {
          "internalType": "address",
          "name": "_to",
          "type": "address"
        },
        {
          "internalType": "uint256",
          "name": "_tokenId",
          "type": "uint256"
        }
      ],
      "name": "transferFrom",
      "outputs": [],
      "stateMutability": "nonpayable",
      "type": "function"
    },
    {
      "inputs": [
        {
          "internalType": "address",
          "name": "_newOwner",
          "type": "address"
        }
      ],
      "name": "transferOwnership",
      "outputs": [],
      "stateMutability": "nonpayable",
      "type": "function"
    },
    {
      "inputs": [
        {
          "internalType": "address",
          "name": "_to",
          "type": "address"
        },
        {
          "internalType": "uint256",
          "name": "_tokenId",
          "type": "uint256"
        },
        {
          "internalType": "string",
          "name": "_uri",
          "type": "string"
        }
      ],
      "name": "mint",
      "outputs": [],
      "stateMutability": "nonpayable",
      "type": "function"
    }
  ],
  "bytecode": "0x60806040523480156200001157600080fd5b50604051620019ae380380620019ae833981016040819052620000349162000260565b600060208181527f67be87c3ff9960ca1e9cfac5cab2ff4747269cf9ed20c9b7306235ac35a491c5805460ff1990811660019081179092557ff7815fccbf112960a73756e185887fedcb9fc64ca0a16cc5923b7960ed7808008054821683179055635b5e139f60e01b9093527f9562381dfbc2d8b8b66e765249f330164b73e329e5f01670660643571d1974df805490931617909155600880546001600160a01b031916331790558251620000f091600591908501906200010f565b508051620001069060069060208401906200010f565b5050506200031a565b8280546200011d90620002c7565b90600052602060002090601f0160209004810192826200014157600085556200018c565b82601f106200015c57805160ff19168380011785556200018c565b828001600101855582156200018c579182015b828111156200018c5782518255916020019190600101906200016f565b506200019a9291506200019e565b5090565b5b808211156200019a57600081556001016200019f565b600082601f830112620001c6578081fd5b81516001600160401b0380821115620001e357620001e362000304565b6040516020601f8401601f19168201810183811183821017156200020b576200020b62000304565b604052838252858401810187101562000222578485fd5b8492505b8383101562000245578583018101518284018201529182019162000226565b838311156200025657848185840101525b5095945050505050565b6000806040838503121562000273578182fd5b82516001600160401b03808211156200028a578384fd5b6200029886838701620001b5565b93506020850151915080821115620002ae578283fd5b50620002bd85828601620001b5565b9150509250929050565b600281046001821680620002dc57607f821691505b60208210811415620002fe57634e487b7160e01b600052602260045260246000fd5b50919050565b634e487b7160e01b600052604160045260246000fd5b611684806200032a6000396000f3fe608060405234801561001057600080fd5b50600436106101165760003560e01c80638da5cb5b116100a2578063c87b56dd11610071578063c87b56dd14610225578063d3fc986414610238578063e985e9c51461024b578063f2fde38b1461025e578063f3fe3bc31461027157610116565b80638da5cb5b146101ef57806395d89b41146101f7578063a22cb465146101ff578063b88d4fde1461021257610116565b806323b872dd116100e957806323b872dd1461018e57806342842e0e146101a15780636352211e146101b457806370a08231146101c7578063860d248a146101e757610116565b806301ffc9a71461011b57806306fdde0314610144578063081812fc14610159578063095ea7b314610179575b600080fd5b61012e6101293660046114a8565b610279565b60405161013b9190611594565b60405180910390f35b61014c61029c565b60405161013b919061159f565b61016c6101673660046114e0565b61032e565b60405161013b9190611543565b61018c610187366004611427565b6103b0565b005b61018c61019c366004611345565b610552565b61018c6101af366004611345565b61070d565b61016c6101c23660046114e0565b61072d565b6101da6101d53660046112f9565b610785565b60405161013b91906115b2565b61014c6107dc565b61016c6107fe565b61014c61080d565b61018c61020d3660046113ed565b61081c565b61018c610220366004611380565b61088b565b61014c6102333660046114e0565b6108d4565b61018c610246366004611450565b610940565b61012e610259366004611313565b6109da565b61018c61026c3660046112f9565b610a08565b61014c610af3565b6001600160e01b0319811660009081526020819052604090205460ff165b919050565b6060600580546102ab906115ea565b80601f01602080910402602001604051908101604052809291908181526020018280546102d7906115ea565b80156103245780601f106102f957610100808354040283529160200191610324565b820191906000526020600020905b81548152906001019060200180831161030757829003601f168201915b5050505050905090565b6000818152600160209081526040808320548151808301909252600682526518181998181960d11b9282019290925283916001600160a01b031661038e5760405162461bcd60e51b8152600401610385919061159f565b60405180910390fd5b506000838152600260205260409020546001600160a01b031691505b50919050565b60008181526001602052604090205481906001600160a01b0316338114806103fb57506001600160a01b038116600090815260046020908152604080832033845290915290205460ff165b6040518060400160405280600681526020016530303330303360d01b815250906104385760405162461bcd60e51b8152600401610385919061159f565b50600083815260016020908152604091829020548251808401909352600683526518181998181960d11b918301919091528491906001600160a01b03166104925760405162461bcd60e51b8152600401610385919061159f565b50600084815260016020908152604091829020548251808401909352600683526506060666060760d31b918301919091526001600160a01b03908116919087168214156104f25760405162461bcd60e51b8152600401610385919061159f565b5060008581526002602052604080822080546001600160a01b0319166001600160a01b038a811691821790925591518893918516917f8c5be1e5ebec7d5bd14f71427d1e84f3dd0314c0f7b2291e5b200ac8c7c3b92591a4505050505050565b60008181526001602052604090205481906001600160a01b03163381148061059057506000828152600260205260409020546001600160a01b031633145b806105be57506001600160a01b038116600090815260046020908152604080832033845290915290205460ff165b604051806040016040528060068152602001650c0c0ccc0c0d60d21b815250906105fb5760405162461bcd60e51b8152600401610385919061159f565b50600083815260016020908152604091829020548251808401909352600683526518181998181960d11b918301919091528491906001600160a01b03166106555760405162461bcd60e51b8152600401610385919061159f565b50600084815260016020908152604091829020548251808401909352600683526530303330303760d01b918301919091526001600160a01b039081169190881682146106b45760405162461bcd60e51b8152600401610385919061159f565b5060408051808201909152600681526530303330303160d01b60208201526001600160a01b0387166106f95760405162461bcd60e51b8152600401610385919061159f565b506107048686610b15565b50505050505050565b61072883838360405180602001604052806000815250610b90565b505050565b600081815260016020908152604091829020548251808401909352600683526518181998181960d11b918301919091526001600160a01b031690816103aa5760405162461bcd60e51b8152600401610385919061159f565b60408051808201909152600681526530303330303160d01b60208201526000906001600160a01b0383166107cc5760405162461bcd60e51b8152600401610385919061159f565b506107d682610e3e565b92915050565b6040518060400160405280600681526020016518189c18181960d11b81525081565b6008546001600160a01b031681565b6060600680546102ab906115ea565b3360008181526004602090815260408083206001600160a01b038716808552925291829020805460ff191685151517905590519091907f17307eab39ab6107e8899845ad3d59bd9653f200f220920489ca2b5937696c319061087f908590611594565b60405180910390a35050565b6108cd85858585858080601f016020809104026020016040519081016040528093929190818152602001838380828437600092019190915250610b9092505050565b5050505050565b600081815260016020908152604091829020548251808401909352600683526518181998181960d11b9183019190915260609183916001600160a01b031661092f5760405162461bcd60e51b8152600401610385919061159f565b5061093983610e59565b9392505050565b60085460408051808201909152600681526530313830303160d01b6020820152906001600160a01b031633146109895760405162461bcd60e51b8152600401610385919061159f565b506109948484610efb565b6109d48383838080601f016020809104026020016040519081016040528093929190818152602001838380828437600092019190915250610fde92505050565b50505050565b6001600160a01b03918216600090815260046020908152604080832093909416825291909152205460ff1690565b60085460408051808201909152600681526530313830303160d01b6020820152906001600160a01b03163314610a515760405162461bcd60e51b8152600401610385919061159f565b5060408051808201909152600681526518189c18181960d11b60208201526001600160a01b038216610a965760405162461bcd60e51b8152600401610385919061159f565b506008546040516001600160a01b038084169216907f8be0079c531659141344cd1fd0a4f28419497f9722a3daafe3b4186f6b6457e090600090a3600880546001600160a01b0319166001600160a01b0392909216919091179055565b6040518060400160405280600681526020016530313830303160d01b81525081565b6000818152600160205260409020546001600160a01b0316610b3682611057565b610b408183611075565b610b4a838361111e565b81836001600160a01b0316826001600160a01b03167fddf252ad1be2c89b69c2b068fc378daa952ba7f163c4a11628f55a4df523b3ef60405160405180910390a4505050565b60008281526001602052604090205482906001600160a01b031633811480610bce57506000828152600260205260409020546001600160a01b031633145b80610bfc57506001600160a01b038116600090815260046020908152604080832033845290915290205460ff165b604051806040016040528060068152602001650c0c0ccc0c0d60d21b81525090610c395760405162461bcd60e51b8152600401610385919061159f565b50600084815260016020908152604091829020548251808401909352600683526518181998181960d11b918301919091528591906001600160a01b0316610c935760405162461bcd60e51b8152600401610385919061159f565b50600085815260016020908152604091829020548251808401909352600683526530303330303760d01b918301919091526001600160a01b03908116919089168214610cf25760405162461bcd60e51b8152600401610385919061159f565b5060408051808201909152600681526530303330303160d01b60208201526001600160a01b038816610d375760405162461bcd60e51b8152600401610385919061159f565b50610d428787610b15565b610d54876001600160a01b03166111c6565b15610e3457604051630a85bd0160e11b81526000906001600160a01b0389169063150b7a0290610d8e9033908d908c908c90600401611557565b602060405180830381600087803b158015610da857600080fd5b505af1158015610dbc573d6000803e3d6000fd5b505050506040513d601f19601f82011682018060405250810190610de091906114c4565b60408051808201909152600681526530303330303560d01b60208201529091506001600160e01b03198216630a85bd0160e11b14610e315760405162461bcd60e51b8152600401610385919061159f565b50505b5050505050505050565b6001600160a01b031660009081526003602052604090205490565b6000818152600760205260409020805460609190610e76906115ea565b80601f0160208091040260200160405190810160405280929190818152602001828054610ea2906115ea565b8015610eef5780601f10610ec457610100808354040283529160200191610eef565b820191906000526020600020905b815481529060010190602001808311610ed257829003601f168201915b50505050509050919050565b60408051808201909152600681526530303330303160d01b60208201526001600160a01b038316610f3f5760405162461bcd60e51b8152600401610385919061159f565b50600081815260016020908152604091829020548251808401909352600683526518181998181b60d11b918301919091526001600160a01b031615610f975760405162461bcd60e51b8152600401610385919061159f565b50610fa2828261111e565b60405181906001600160a01b038416906000907fddf252ad1be2c89b69c2b068fc378daa952ba7f163c4a11628f55a4df523b3ef908290a45050565b600082815260016020908152604091829020548251808401909352600683526518181998181960d11b918301919091528391906001600160a01b03166110375760405162461bcd60e51b8152600401610385919061159f565b50600083815260076020908152604090912083516109d492850190611202565b600090815260026020526040902080546001600160a01b0319169055565b600081815260016020908152604091829020548251808401909352600683526530303330303760d01b918301919091526001600160a01b038481169116146110d05760405162461bcd60e51b8152600401610385919061159f565b506001600160a01b03821660009081526003602052604081208054600192906110fa9084906115d3565b9091555050600090815260016020526040902080546001600160a01b031916905550565b600081815260016020908152604091829020548251808401909352600683526518181998181b60d11b918301919091526001600160a01b0316156111755760405162461bcd60e51b8152600401610385919061159f565b50600081815260016020818152604080842080546001600160a01b0319166001600160a01b0388169081179091558452600390915282208054919290916111bd9084906115bb565b90915550505050565b6000813f7fc5d2460186f7233c927e7db2dcc703c0e500b653ca82273b7bfad8045d85a47081158015906111fa5750808214155b949350505050565b82805461120e906115ea565b90600052602060002090601f0160209004810192826112305760008555611276565b82601f1061124957805160ff1916838001178555611276565b82800160010185558215611276579182015b8281111561127657825182559160200191906001019061125b565b50611282929150611286565b5090565b5b808211156112825760008155600101611287565b80356001600160a01b038116811461029757600080fd5b60008083601f8401126112c3578182fd5b50813567ffffffffffffffff8111156112da578182fd5b6020830191508360208285010111156112f257600080fd5b9250929050565b60006020828403121561130a578081fd5b6109398261129b565b60008060408385031215611325578081fd5b61132e8361129b565b915061133c6020840161129b565b90509250929050565b600080600060608486031215611359578081fd5b6113628461129b565b92506113706020850161129b565b9150604084013590509250925092565b600080600080600060808688031215611397578081fd5b6113a08661129b565b94506113ae6020870161129b565b935060408601359250606086013567ffffffffffffffff8111156113d0578182fd5b6113dc888289016112b2565b969995985093965092949392505050565b600080604083850312156113ff578182fd5b6114088361129b565b91506020830135801515811461141c578182fd5b809150509250929050565b60008060408385031215611439578182fd5b6114428361129b565b946020939093013593505050565b60008060008060608587031215611465578384fd5b61146e8561129b565b935060208501359250604085013567ffffffffffffffff811115611490578283fd5b61149c878288016112b2565b95989497509550505050565b6000602082840312156114b9578081fd5b813561093981611635565b6000602082840312156114d5578081fd5b815161093981611635565b6000602082840312156114f1578081fd5b5035919050565b60008151808452815b8181101561151d57602081850181015186830182015201611501565b8181111561152e5782602083870101525b50601f01601f19169290920160200192915050565b6001600160a01b0391909116815260200190565b6001600160a01b038581168252841660208201526040810183905260806060820181905260009061158a908301846114f8565b9695505050505050565b901515815260200190565b60006020825261093960208301846114f8565b90815260200190565b600082198211156115ce576115ce61161f565b500190565b6000828210156115e5576115e561161f565b500390565b6002810460018216806115fe57607f821691505b602082108114156103aa57634e487b7160e01b600052602260045260246000fd5b634e487b7160e01b600052601160045260246000fd5b6001600160e01b03198116811461164b57600080fd5b5056fea264697066735822122055ab57d9aea9133d057e18de0a26a8ed1bbfcfabdf31fb631bb34ff77fb6fec164736f6c63430008000033",
  "immutableReferences": {},
  "source": "pragma solidity 0.8.0;\n \nimport \"./nf_token_metadata.sol\";\nimport \"./_ownable.sol\";\n \ncontract NFT is NFTokenMetadata, Ownable {\n \n  constructor(string memory _nftName, string memory _nftSymbol) {\n    nftName = _nftName;\n    nftSymbol = _nftSymbol;\n  }\n  \n  function mint(address _to, uint256 _tokenId, string calldata _uri) external onlyOwner {\n    super._mint(_to, _tokenId);\n    super._setTokenUri(_tokenId, _uri);\n  }\n\n \n}",
  "sourcePath": "/home/pdaguier/CryptoCactus/smartcontract/contract/NFT.sol",
  "compiler": {
    "name": "solc",
    "version": "0.8.0+commit.c7dfd78e.Emscripten.clang"
  },
  "schemaVersion": "3.4.13",
  "updatedAt": "2023-04-04T05:44:09.352Z",
  "devdoc": {
    "kind": "dev",
    "methods": {},
    "version": 1
  },
  "userdoc": {
    "kind": "user",
    "methods": {},
    "version": 1
  }
}