{
  "contractName": "Ownable",
  "abi": [
    {
      "inputs": [],
      "stateMutability": "nonpayable",
      "type": "constructor"
    },
    {
      "anonymous": false,
      "inputs": [
        {
          "indexed": true,
          "internalType": "address",
          "name": "previousOwner",
          "type": "address"
        },
        {
          "indexed": true,
          "internalType": "address",
          "name": "newOwner",
          "type": "address"
        }
      ],
      "name": "OwnershipTransferred",
      "type": "event"
    },
    {
      "inputs": [],
      "name": "CANNOT_TRANSFER_TO_ZERO_ADDRESS",
      "outputs": [
        {
          "internalType": "string",
          "name": "",
          "type": "string"
        }
      ],
      "stateMutability": "view",
      "type": "function"
    },
    {
      "inputs": [],
      "name": "NOT_CURRENT_OWNER",
      "outputs": [
        {
          "internalType": "string",
          "name": "",
          "type": "string"
        }
      ],
      "stateMutability": "view",
      "type": "function"
    },
    {
      "inputs": [],
      "name": "owner",
      "outputs": [
        {
          "internalType": "address",
          "name": "",
          "type": "address"
        }
      ],
      "stateMutability": "view",
      "type": "function"
    },
    {
      "inputs": [
        {
          "internalType": "address",
          "name": "_newOwner",
          "type": "address"
        }
      ],
      "name": "transferOwnership",
      "outputs": [],
      "stateMutability": "nonpayable",
      "type": "function"
    }
  ],
  "bytecode": "0x608060405234801561001057600080fd5b50600080546001600160a01b031916331790556102b2806100326000396000f3fe608060405234801561001057600080fd5b506004361061004c5760003560e01c8063860d248a146100515780638da5cb5b1461006f578063f2fde38b14610084578063f3fe3bc314610099575b600080fd5b6100596100a1565b6040516100669190610229565b60405180910390f35b6100776100c3565b6040516100669190610215565b6100976100923660046101e7565b6100d2565b005b6100596101c5565b6040518060400160405280600681526020016518189c18181960d11b81525081565b6000546001600160a01b031681565b60005460408051808201909152600681526530313830303160d01b6020820152906001600160a01b031633146101245760405162461bcd60e51b815260040161011b9190610229565b60405180910390fd5b5060408051808201909152600681526518189c18181960d11b60208201526001600160a01b0382166101695760405162461bcd60e51b815260040161011b9190610229565b50600080546040516001600160a01b03808516939216917f8be0079c531659141344cd1fd0a4f28419497f9722a3daafe3b4186f6b6457e091a3600080546001600160a01b0319166001600160a01b0392909216919091179055565b6040518060400160405280600681526020016530313830303160d01b81525081565b6000602082840312156101f8578081fd5b81356001600160a01b038116811461020e578182fd5b9392505050565b6001600160a01b0391909116815260200190565b6000602080835283518082850152825b8181101561025557858101830151858201604001528201610239565b818111156102665783604083870101525b50601f01601f191692909201604001939250505056fea2646970667358221220b5a7a195c2547e3f22ed722363e32a3a98cf0003cf4194c255f1d22413bcdc7264736f6c63430008000033",
  "immutableReferences": {},
  "source": "// SPDX-License-Identifier: MIT\npragma solidity ^0.8.0;\n\n\ncontract Ownable\n{\n\n\n  string public constant NOT_CURRENT_OWNER = \"018001\";\n  string public constant CANNOT_TRANSFER_TO_ZERO_ADDRESS = \"018002\";\n\n  address public owner;\n\n  event OwnershipTransferred(\n    address indexed previousOwner,\n    address indexed newOwner\n  );\n\n\n  constructor()\n  {\n    owner = msg.sender;\n  }\n\n\n  modifier onlyOwner()\n  {\n    require(msg.sender == owner, NOT_CURRENT_OWNER);\n    _;\n  }\n\n\n  function transferOwnership(\n    address _newOwner\n  )\n    public\n    onlyOwner\n  {\n    require(_newOwner != address(0), CANNOT_TRANSFER_TO_ZERO_ADDRESS);\n    emit OwnershipTransferred(owner, _newOwner);\n    owner = _newOwner;\n  }\n\n}\n",
  "sourcePath": "/home/pdaguier/CryptoCactus/smartcontract/contract/_ownable.sol",
  "compiler": {
    "name": "solc",
    "version": "0.8.0+commit.c7dfd78e.Emscripten.clang"
  },
  "schemaVersion": "3.4.13",
  "updatedAt": "2023-04-04T05:44:09.358Z",
  "devdoc": {
    "kind": "dev",
    "methods": {},
    "version": 1
  },
  "userdoc": {
    "kind": "user",
    "methods": {},
    "version": 1
  }
}